{
  "contractName": "AntoineRevel_SolutionTest",
  "abi": [
    {
      "inputs": [
        {
          "internalType": "address payable",
          "name": "_evaluator",
          "type": "address"
        },
        {
          "internalType": "address",
          "name": "_uniswapRouterAddress",
          "type": "address"
        },
        {
          "internalType": "address",
          "name": "_dummyToken",
          "type": "address"
        },
        {
          "internalType": "address",
          "name": "_tdToken",
          "type": "address"
        }
      ],
      "stateMutability": "payable",
      "type": "constructor",
      "payable": true
    },
    {
      "inputs": [],
      "name": "uniswapV2Factory",
      "outputs": [
        {
          "internalType": "contract IUniswapV2Factory",
          "name": "",
          "type": "address"
        }
      ],
      "stateMutability": "view",
      "type": "function",
      "constant": true
    },
    {
      "inputs": [
        {
          "internalType": "address",
          "name": "_ttsAddress",
          "type": "address"
        },
        {
          "internalType": "address",
          "name": "solution",
          "type": "address"
        }
      ],
      "name": "continueClaim",
      "outputs": [],
      "stateMutability": "payable",
      "type": "function",
      "payable": true
    },
    {
      "inputs": [],
      "name": "getPoint",
      "outputs": [
        {
          "internalType": "uint256",
          "name": "",
          "type": "uint256"
        }
      ],
      "stateMutability": "view",
      "type": "function",
      "constant": true
    },
    {
      "inputs": [],
      "name": "getSupply",
      "outputs": [
        {
          "internalType": "uint256",
          "name": "",
          "type": "uint256"
        }
      ],
      "stateMutability": "view",
      "type": "function",
      "constant": true
    },
    {
      "inputs": [],
      "name": "getTicker",
      "outputs": [
        {
          "internalType": "string",
          "name": "",
          "type": "string"
        }
      ],
      "stateMutability": "view",
      "type": "function",
      "constant": true
    }
  ],
  "bytecode": "0x60806040526040516200198a3803806200198a833981810160405260808110156200002957600080fd5b8101908080519060200190929190805190602001909291908051906020019092919080519060200190929190505050836000806101000a81548173ffffffffffffffffffffffffffffffffffffffff021916908373ffffffffffffffffffffffffffffffffffffffff16021790555080600160006101000a81548173ffffffffffffffffffffffffffffffffffffffff021916908373ffffffffffffffffffffffffffffffffffffffff16021790555082600260006101000a81548173ffffffffffffffffffffffffffffffffffffffff021916908373ffffffffffffffffffffffffffffffffffffffff160217905550600260009054906101000a900473ffffffffffffffffffffffffffffffffffffffff1673ffffffffffffffffffffffffffffffffffffffff1663c45a01556040518163ffffffff1660e01b815260040160206040518083038186803b1580156200018357600080fd5b505afa15801562000198573d6000803e3d6000fd5b505050506040513d6020811015620001af57600080fd5b8101908080519060200190929190505050600360006101000a81548173ffffffffffffffffffffffffffffffffffffffff021916908373ffffffffffffffffffffffffffffffffffffffff16021790555081600460006101000a81548173ffffffffffffffffffffffffffffffffffffffff021916908373ffffffffffffffffffffffffffffffffffffffff16021790555081600560006101000a81548173ffffffffffffffffffffffffffffffffffffffff021916908373ffffffffffffffffffffffffffffffffffffffff160217905550600260009054906101000a900473ffffffffffffffffffffffffffffffffffffffff1673ffffffffffffffffffffffffffffffffffffffff1663ad5c46486040518163ffffffff1660e01b815260040160206040518083038186803b158015620002eb57600080fd5b505afa15801562000300573d6000803e3d6000fd5b505050506040513d60208110156200031757600080fd5b8101908080519060200190929190505050600660006101000a81548173ffffffffffffffffffffffffffffffffffffffff021916908373ffffffffffffffffffffffffffffffffffffffff160217905550600660009054906101000a900473ffffffffffffffffffffffffffffffffffffffff16600760006101000a81548173ffffffffffffffffffffffffffffffffffffffff021916908373ffffffffffffffffffffffffffffffffffffffff160217905550620003db620003e560201b60201c565b5050505062000c65565b620003f56200048a60201b60201c565b620004056200080660201b60201c565b6000809054906101000a900473ffffffffffffffffffffffffffffffffffffffff1673ffffffffffffffffffffffffffffffffffffffff16639b148f176040518163ffffffff1660e01b8152600401600060405180830381600087803b1580156200046f57600080fd5b505af115801562000484573d6000803e3d6000fd5b50505050565b60606002604051908082528060200260200182016040528015620004bd5781602001602082028038833980820191505090505b509050600660009054906101000a900473ffffffffffffffffffffffffffffffffffffffff1681600081518110620004f157fe5b602002602001019073ffffffffffffffffffffffffffffffffffffffff16908173ffffffffffffffffffffffffffffffffffffffff1681525050600460009054906101000a900473ffffffffffffffffffffffffffffffffffffffff16816001815181106200055c57fe5b602002602001019073ffffffffffffffffffffffffffffffffffffffff16908173ffffffffffffffffffffffffffffffffffffffff1681525050600260009054906101000a900473ffffffffffffffffffffffffffffffffffffffff1673ffffffffffffffffffffffffffffffffffffffff16637ff36ab560023481620005df57fe5b0460008430600f42016040518663ffffffff1660e01b815260040180858152602001806020018473ffffffffffffffffffffffffffffffffffffffff1673ffffffffffffffffffffffffffffffffffffffff168152602001838152602001828103825285818151815260200191508051906020019060200280838360005b838110156200067a5780820151818401526020810190506200065d565b50505050905001955050505050506000604051808303818588803b158015620006a257600080fd5b505af1158015620006b7573d6000803e3d6000fd5b50505050506040513d6000823e3d601f19601f820116820180604052506020811015620006e357600080fd5b81019080805160405193929190846401000000008211156200070457600080fd5b838201915060208201858111156200071b57600080fd5b82518660208202830111640100000000821117156200073957600080fd5b8083526020830192505050908051906020019060200280838360005b838110156200077257808201518184015260208101905062000755565b50505050905001604052505050506000809054906101000a900473ffffffffffffffffffffffffffffffffffffffff1673ffffffffffffffffffffffffffffffffffffffff166352954cf36040518163ffffffff1660e01b8152600401600060405180830381600087803b158015620007ea57600080fd5b505af1158015620007ff573d6000803e3d6000fd5b5050505050565b6000600560009054906101000a900473ffffffffffffffffffffffffffffffffffffffff1673ffffffffffffffffffffffffffffffffffffffff166370a08231306040518263ffffffff1660e01b8152600401808273ffffffffffffffffffffffffffffffffffffffff1673ffffffffffffffffffffffffffffffffffffffff16815260200191505060206040518083038186803b158015620008a857600080fd5b505afa158015620008bd573d6000803e3d6000fd5b505050506040513d6020811015620008d457600080fd5b81019080805190602001909291905050509050600560009054906101000a900473ffffffffffffffffffffffffffffffffffffffff1673ffffffffffffffffffffffffffffffffffffffff1663095ea7b3600260009054906101000a900473ffffffffffffffffffffffffffffffffffffffff16836040518363ffffffff1660e01b8152600401808373ffffffffffffffffffffffffffffffffffffffff1673ffffffffffffffffffffffffffffffffffffffff16815260200182815260200192505050602060405180830381600087803b158015620009b357600080fd5b505af1158015620009c8573d6000803e3d6000fd5b505050506040513d6020811015620009df57600080fd5b810190808051906020019092919050505062000a63576040517f08c379a00000000000000000000000000000000000000000000000000000000081526004018080602001828103825260158152602001807f746f6b656e20617070726f766564206661696c6564000000000000000000000081525060200191505060405180910390fd5b600260009054906101000a900473ffffffffffffffffffffffffffffffffffffffff1673ffffffffffffffffffffffffffffffffffffffff1663f305d7196002348162000aac57fe5b04600460009054906101000a900473ffffffffffffffffffffffffffffffffffffffff168460008030600f42016040518863ffffffff1660e01b8152600401808773ffffffffffffffffffffffffffffffffffffffff1673ffffffffffffffffffffffffffffffffffffffff1681526020018681526020018581526020018481526020018373ffffffffffffffffffffffffffffffffffffffff1673ffffffffffffffffffffffffffffffffffffffff16815260200182815260200196505050505050506060604051808303818588803b15801562000b8a57600080fd5b505af115801562000b9f573d6000803e3d6000fd5b50505050506040513d606081101562000bb757600080fd5b810190808051906020019092919080519060200190929190805190602001909291905050505050506000809054906101000a900473ffffffffffffffffffffffffffffffffffffffff1673ffffffffffffffffffffffffffffffffffffffff1663c75993936040518163ffffffff1660e01b8152600401600060405180830381600087803b15801562000c4957600080fd5b505af115801562000c5e573d6000803e3d6000fd5b5050505050565b610d158062000c756000396000f3fe60806040526004361061004a5760003560e01c806359d0f7131461004f5780635bea9faa146100a65780636c9c2faf146100d1578063bc9c5acd146100fc578063c000421314610160575b600080fd5b34801561005b57600080fd5b506100646101f0565b604051808273ffffffffffffffffffffffffffffffffffffffff1673ffffffffffffffffffffffffffffffffffffffff16815260200191505060405180910390f35b3480156100b257600080fd5b506100bb610216565b6040518082815260200191505060405180910390f35b3480156100dd57600080fd5b506100e66102f7565b6040518082815260200191505060405180910390f35b61015e6004803603604081101561011257600080fd5b81019080803573ffffffffffffffffffffffffffffffffffffffff169060200190929190803573ffffffffffffffffffffffffffffffffffffffff1690602001909291905050506103d7565b005b34801561016c57600080fd5b506101756106f9565b6040518080602001828103825283818151815260200191508051906020019080838360005b838110156101b557808201518184015260208101905061019a565b50505050905090810190601f1680156101e25780820380516001836020036101000a031916815260200191505b509250505060405180910390f35b600360009054906101000a900473ffffffffffffffffffffffffffffffffffffffff1681565b6000600160009054906101000a900473ffffffffffffffffffffffffffffffffffffffff1673ffffffffffffffffffffffffffffffffffffffff166370a08231306040518263ffffffff1660e01b8152600401808273ffffffffffffffffffffffffffffffffffffffff1673ffffffffffffffffffffffffffffffffffffffff16815260200191505060206040518083038186803b1580156102b757600080fd5b505afa1580156102cb573d6000803e3d6000fd5b505050506040513d60208110156102e157600080fd5b8101908080519060200190929190505050905090565b60008060009054906101000a900473ffffffffffffffffffffffffffffffffffffffff1673ffffffffffffffffffffffffffffffffffffffff16639f91f516306040518263ffffffff1660e01b8152600401808273ffffffffffffffffffffffffffffffffffffffff1673ffffffffffffffffffffffffffffffffffffffff16815260200191505060206040518083038186803b15801561039757600080fd5b505afa1580156103ab573d6000803e3d6000fd5b505050506040513d60208110156103c157600080fd5b8101908080519060200190929190505050905090565b81600860006101000a81548173ffffffffffffffffffffffffffffffffffffffff021916908373ffffffffffffffffffffffffffffffffffffffff16021790555081600960006101000a81548173ffffffffffffffffffffffffffffffffffffffff021916908373ffffffffffffffffffffffffffffffffffffffff1602179055506000809054906101000a900473ffffffffffffffffffffffffffffffffffffffff1673ffffffffffffffffffffffffffffffffffffffff16637c83d61a600960009054906101000a900473ffffffffffffffffffffffffffffffffffffffff166040518263ffffffff1660e01b8152600401808273ffffffffffffffffffffffffffffffffffffffff1673ffffffffffffffffffffffffffffffffffffffff168152602001915050600060405180830381600087803b15801561051b57600080fd5b505af115801561052f573d6000803e3d6000fd5b505050506000809054906101000a900473ffffffffffffffffffffffffffffffffffffffff1673ffffffffffffffffffffffffffffffffffffffff1663cd3560d76040518163ffffffff1660e01b8152600401600060405180830381600087803b15801561059c57600080fd5b505af11580156105b0573d6000803e3d6000fd5b505050506105bc610897565b6000809054906101000a900473ffffffffffffffffffffffffffffffffffffffff1673ffffffffffffffffffffffffffffffffffffffff16632236d353826040518263ffffffff1660e01b8152600401808273ffffffffffffffffffffffffffffffffffffffff1673ffffffffffffffffffffffffffffffffffffffff168152602001915050600060405180830381600087803b15801561065c57600080fd5b505af1158015610670573d6000803e3d6000fd5b505050506000809054906101000a900473ffffffffffffffffffffffffffffffffffffffff1673ffffffffffffffffffffffffffffffffffffffff1663cc093e7a6040518163ffffffff1660e01b8152600401600060405180830381600087803b1580156106dd57600080fd5b505af11580156106f1573d6000803e3d6000fd5b505050505050565b60606000809054906101000a900473ffffffffffffffffffffffffffffffffffffffff1673ffffffffffffffffffffffffffffffffffffffff1663e22b5dcf306040518263ffffffff1660e01b8152600401808273ffffffffffffffffffffffffffffffffffffffff1673ffffffffffffffffffffffffffffffffffffffff16815260200191505060006040518083038186803b15801561079957600080fd5b505afa1580156107ad573d6000803e3d6000fd5b505050506040513d6000823e3d601f19601f8201168201806040525060208110156107d757600080fd5b81019080805160405193929190846401000000008211156107f757600080fd5b8382019150602082018581111561080d57600080fd5b825186600182028301116401000000008211171561082a57600080fd5b8083526020830192505050908051906020019080838360005b8381101561085e578082015181840152602081019050610843565b50505050905090810190601f16801561088b5780820380516001836020036101000a031916815260200191505b50604052505050905090565b6000600960009054906101000a900473ffffffffffffffffffffffffffffffffffffffff1673ffffffffffffffffffffffffffffffffffffffff166370a08231306040518263ffffffff1660e01b8152600401808273ffffffffffffffffffffffffffffffffffffffff1673ffffffffffffffffffffffffffffffffffffffff16815260200191505060206040518083038186803b15801561093857600080fd5b505afa15801561094c573d6000803e3d6000fd5b505050506040513d602081101561096257600080fd5b81019080805190602001909291905050509050600960009054906101000a900473ffffffffffffffffffffffffffffffffffffffff1673ffffffffffffffffffffffffffffffffffffffff1663095ea7b3600260009054906101000a900473ffffffffffffffffffffffffffffffffffffffff16836040518363ffffffff1660e01b8152600401808373ffffffffffffffffffffffffffffffffffffffff1673ffffffffffffffffffffffffffffffffffffffff16815260200182815260200192505050602060405180830381600087803b158015610a4057600080fd5b505af1158015610a54573d6000803e3d6000fd5b505050506040513d6020811015610a6a57600080fd5b8101908080519060200190929190505050610aed576040517f08c379a00000000000000000000000000000000000000000000000000000000081526004018080602001828103825260158152602001807f746f6b656e20617070726f766564206661696c6564000000000000000000000081525060200191505060405180910390fd5b600260009054906101000a900473ffffffffffffffffffffffffffffffffffffffff1673ffffffffffffffffffffffffffffffffffffffff1663f305d71934600860009054906101000a900473ffffffffffffffffffffffffffffffffffffffff168460008030600f42016040518863ffffffff1660e01b8152600401808773ffffffffffffffffffffffffffffffffffffffff1673ffffffffffffffffffffffffffffffffffffffff1681526020018681526020018581526020018481526020018373ffffffffffffffffffffffffffffffffffffffff1673ffffffffffffffffffffffffffffffffffffffff16815260200182815260200196505050505050506060604051808303818588803b158015610c0857600080fd5b505af1158015610c1c573d6000803e3d6000fd5b50505050506040513d6060811015610c3357600080fd5b810190808051906020019092919080519060200190929190805190602001909291905050505050506000809054906101000a900473ffffffffffffffffffffffffffffffffffffffff1673ffffffffffffffffffffffffffffffffffffffff166305b120226040518163ffffffff1660e01b8152600401600060405180830381600087803b158015610cc457600080fd5b505af1158015610cd8573d6000803e3d6000fd5b505050505056fea264697066735822122052e43f16987856915681f4c9ca23d254e750ec2c1cdb18b89c4482d163045c0b64736f6c63430006020033",
  "source": "pragma solidity ^0.6.2;\nimport \"./Evaluator.sol\";\nimport \"./DummyToken.sol\";\n\nimport \"./utils/IUniswapV2Factory.sol\";\nimport \"./utils/IUniswapV2Pair.sol\";\n\nimport '@uniswap/v2-periphery/contracts/interfaces/IUniswapV2Router02.sol';\nimport \"@openzeppelin/contracts/token/ERC20/ERC20.sol\";\n\ncontract AntoineRevel_SolutionTest {\n    Evaluator evaluator;\n    ERC20 tdToken;\n\n    IUniswapV2Router02 uniswapRouter;\n    IUniswapV2Factory public uniswapV2Factory;\n\n    address dummyTokenAddress;\n    DummyToken private dummyToken;\n\n    address wethAddress;\n    IERC20 private weth;\n\n    address tokenToSwapAddress;\n    IRichERC20 private tokenToSwap;\n\n\n    constructor(address payable _evaluator,address _uniswapRouterAddress,address _dummyToken,address _tdToken) public payable {\n        evaluator = Evaluator(_evaluator);\n        tdToken=ERC20(_tdToken);\n\n        uniswapRouter=IUniswapV2Router02(_uniswapRouterAddress);\n        uniswapV2Factory=IUniswapV2Factory(uniswapRouter.factory());\n        dummyTokenAddress=_dummyToken;\n        dummyToken=DummyToken(_dummyToken);\n        wethAddress=uniswapRouter.WETH();\n        weth=ERC20(wethAddress);\n\n        start();\n    }\n\n    function start() private {\n        ex1_buyToken();\n        ex2_addLiquidity();\n        evaluator.ex6a_getTickerAndSupply();\n    }\n\n    function ex1_buyToken() private {\n        address [] memory path  = new address[](2);\n        path[0] = wethAddress;\n        path[1]= dummyTokenAddress;\n        uniswapRouter.swapExactETHForTokens{ value: msg.value/2 }(0, path, address(this), block.timestamp + 15);\n        evaluator.ex1_showIHaveTokens();\n    }\n\n    function ex2_addLiquidity() private {\n        uint256 balanceDT=dummyToken.balanceOf(address(this));\n        require(dummyToken.approve(address(uniswapRouter), balanceDT),\"token approved failed\");\n        uniswapRouter.addLiquidityETH{ value: msg.value/2 }(dummyTokenAddress,balanceDT,0,0,address(this),block.timestamp + 15);\n        evaluator.ex2_showIProvidedLiquidity();\n    }\n\n    function continueClaim(address _ttsAddress,address solution) external payable{\n        tokenToSwapAddress=_ttsAddress;\n        tokenToSwap=IRichERC20(_ttsAddress);\n\n        evaluator.submitErc20(tokenToSwap);\n\n        evaluator.ex6b_testErc20TickerAndSupply();\n        ex7_TradableOnUniswap();\n\n        evaluator.submitExercice(IExerciceSolution(solution));\n        evaluator.ex8_contractCanSwapVsEth();\n    }\n\n    function ex7_TradableOnUniswap() private{\n        uint256 balanceTTS=tokenToSwap.balanceOf(address(this));\n        require(tokenToSwap.approve(address(uniswapRouter), balanceTTS),\"token approved failed\");\n        uniswapRouter.addLiquidityETH{ value: msg.value }(tokenToSwapAddress,balanceTTS,0,0,address(this),block.timestamp + 15);\n        evaluator.ex7_tokenIsTradableOnUniswap();\n    }\n\n    function getPoint() public view returns (uint256){\n        return tdToken.balanceOf(address(this));\n    }\n\n    function getSupply() public view returns (uint256){\n        return evaluator.readSupply(address(this));\n    }\n\n    function getTicker() public view returns (string memory){\n        return evaluator.readTicker(address(this));\n    }\n\n}\n",
  "sourcePath": "/Users/antoinerevel/Documents/Cours/ESILV A4/Decentralized Finance/TD02 AMM-101/amm-101/contracts/AntoineRevel_SolutionTest.sol",
  "compiler": {
    "name": "solc",
    "version": "0.6.2+commit.bacdbe57.Emscripten.clang"
  },
  "schemaVersion": "3.4.10",
  "updatedAt": "2023-02-21T00:05:28.746Z",
  "networkType": "ethereum",
  "devdoc": {
    "methods": {}
  },
  "userdoc": {
    "methods": {}
  }
}