{
  "contractName": "AntoineRevel_SolutionTest",
  "abi": [
    {
      "inputs": [
        {
          "internalType": "contract IExerciceSolution",
          "name": "_solution",
          "type": "address"
        },
        {
          "internalType": "contract Evaluator",
          "name": "_evaluator",
          "type": "address"
        },
        {
          "internalType": "address",
          "name": "_uniswapRouterAddress",
          "type": "address"
        },
        {
          "internalType": "contract DummyToken",
          "name": "_dummyToken",
          "type": "address"
        },
        {
          "internalType": "address",
          "name": "_tdToken",
          "type": "address"
        }
      ],
      "stateMutability": "nonpayable",
      "type": "constructor"
    },
    {
      "stateMutability": "payable",
      "type": "receive"
    },
    {
      "inputs": [],
      "name": "startClaimPoint",
      "outputs": [],
      "stateMutability": "nonpayable",
      "type": "function"
    },
    {
      "inputs": [],
      "name": "buyToken",
      "outputs": [],
      "stateMutability": "payable",
      "type": "function"
    },
    {
      "inputs": [],
      "name": "getPoint",
      "outputs": [
        {
          "internalType": "uint256",
          "name": "",
          "type": "uint256"
        }
      ],
      "stateMutability": "view",
      "type": "function"
    },
    {
      "inputs": [],
      "name": "getFactory",
      "outputs": [
        {
          "internalType": "address",
          "name": "",
          "type": "address"
        }
      ],
      "stateMutability": "view",
      "type": "function"
    }
  ],
  "bytecode": "0x608060405234801561001057600080fd5b506040516109fb3803806109fb833981810160405260a081101561003357600080fd5b810190808051906020019092919080519060200190929190805190602001909291908051906020019092919080519060200190929190505050836000806101000a81548173ffffffffffffffffffffffffffffffffffffffff021916908373ffffffffffffffffffffffffffffffffffffffff16021790555080600160006101000a81548173ffffffffffffffffffffffffffffffffffffffff021916908373ffffffffffffffffffffffffffffffffffffffff16021790555084600260006101000a81548173ffffffffffffffffffffffffffffffffffffffff021916908373ffffffffffffffffffffffffffffffffffffffff1602179055506000600260146101000a81548160ff02191690831515021790555082600360006101000a81548173ffffffffffffffffffffffffffffffffffffffff021916908373ffffffffffffffffffffffffffffffffffffffff16021790555081600460006101000a81548173ffffffffffffffffffffffffffffffffffffffff021916908373ffffffffffffffffffffffffffffffffffffffff160217905550600360009054906101000a900473ffffffffffffffffffffffffffffffffffffffff1673ffffffffffffffffffffffffffffffffffffffff1663ad5c46486040518163ffffffff1660e01b815260040160206040518083038186803b15801561023357600080fd5b505afa158015610247573d6000803e3d6000fd5b505050506040513d602081101561025d57600080fd5b8101908080519060200190929190505050600560006101000a81548173ffffffffffffffffffffffffffffffffffffffff021916908373ffffffffffffffffffffffffffffffffffffffff1602179055505050505050610739806102c26000396000f3fe6080604052600436106100435760003560e01c80635bea9faa1461004f5780635dc210051461007a57806388cc58e414610091578063a4821719146100e85761004a565b3661004a57005b600080fd5b34801561005b57600080fd5b506100646100f2565b6040518082815260200191505060405180910390f35b34801561008657600080fd5b5061008f6101d3565b005b34801561009d57600080fd5b506100a66102f4565b604051808273ffffffffffffffffffffffffffffffffffffffff1673ffffffffffffffffffffffffffffffffffffffff16815260200191505060405180910390f35b6100f061039e565b005b6000600160009054906101000a900473ffffffffffffffffffffffffffffffffffffffff1673ffffffffffffffffffffffffffffffffffffffff166370a08231306040518263ffffffff1660e01b8152600401808273ffffffffffffffffffffffffffffffffffffffff1673ffffffffffffffffffffffffffffffffffffffff16815260200191505060206040518083038186803b15801561019357600080fd5b505afa1580156101a7573d6000803e3d6000fd5b505050506040513d60208110156101bd57600080fd5b8101908080519060200190929190505050905090565b600260149054906101000a900460ff1615610256576040517f08c379a00000000000000000000000000000000000000000000000000000000081526004018080602001828103825260118152602001807f416c72656164792073746172746564202100000000000000000000000000000081525060200191505060405180910390fd5b6001600260146101000a81548160ff0219169083151502179055506000809054906101000a900473ffffffffffffffffffffffffffffffffffffffff1673ffffffffffffffffffffffffffffffffffffffff166352954cf36040518163ffffffff1660e01b8152600401600060405180830381600087803b1580156102da57600080fd5b505af11580156102ee573d6000803e3d6000fd5b50505050565b6000600360009054906101000a900473ffffffffffffffffffffffffffffffffffffffff1673ffffffffffffffffffffffffffffffffffffffff1663c45a01556040518163ffffffff1660e01b815260040160206040518083038186803b15801561035e57600080fd5b505afa158015610372573d6000803e3d6000fd5b505050506040513d602081101561038857600080fd5b8101908080519060200190929190505050905090565b606060026040519080825280602002602001820160405280156103d05781602001602082028038833980820191505090505b509050600360009054906101000a900473ffffffffffffffffffffffffffffffffffffffff1673ffffffffffffffffffffffffffffffffffffffff1663ad5c46486040518163ffffffff1660e01b815260040160206040518083038186803b15801561043b57600080fd5b505afa15801561044f573d6000803e3d6000fd5b505050506040513d602081101561046557600080fd5b81019080805190602001909291905050508160008151811061048357fe5b602002602001019073ffffffffffffffffffffffffffffffffffffffff16908173ffffffffffffffffffffffffffffffffffffffff1681525050600460009054906101000a900473ffffffffffffffffffffffffffffffffffffffff16816001815181106104ed57fe5b602002602001019073ffffffffffffffffffffffffffffffffffffffff16908173ffffffffffffffffffffffffffffffffffffffff16815250506060600360009054906101000a900473ffffffffffffffffffffffffffffffffffffffff1673ffffffffffffffffffffffffffffffffffffffff16637ff36ab53460008530600f42016040518663ffffffff1660e01b815260040180858152602001806020018473ffffffffffffffffffffffffffffffffffffffff1673ffffffffffffffffffffffffffffffffffffffff168152602001838152602001828103825285818151815260200191508051906020019060200280838360005b838110156106005780820151818401526020810190506105e5565b50505050905001955050505050506000604051808303818588803b15801561062757600080fd5b505af115801561063b573d6000803e3d6000fd5b50505050506040513d6000823e3d601f19601f82011682018060405250602081101561066657600080fd5b810190808051604051939291908464010000000082111561068657600080fd5b8382019150602082018581111561069c57600080fd5b82518660208202830111640100000000821117156106b957600080fd5b8083526020830192505050908051906020019060200280838360005b838110156106f05780820151818401526020810190506106d5565b505050509050016040525050509050505056fea26469706673582212202e66e9393b2c95e31862413c8f56befa7f8ff5eed42df847e3caaf80fc5843e164736f6c63430006020033",
  "source": "pragma solidity ^0.6.2;\nimport \"./Evaluator.sol\";\nimport \"./DummyToken.sol\";\n\nimport '@uniswap/v2-periphery/contracts/interfaces/IUniswapV2Router02.sol';\nimport \"@openzeppelin/contracts/token/ERC20/ERC20.sol\";\n\ncontract AntoineRevel_SolutionTest {\n    Evaluator evaluator;\n    ERC20 tdToken;\n    IExerciceSolution solution;\n    bool isStarted;\n\n    IUniswapV2Router02 uniswapRouter;\n    DummyToken dummyToken;\n    IERC20 private weth;\n\n\n    constructor(IExerciceSolution _solution, Evaluator _evaluator,address _uniswapRouterAddress,DummyToken _dummyToken,address _tdToken) public{\n        evaluator = _evaluator;\n        tdToken=ERC20(_tdToken);\n        solution = _solution;\n        isStarted=false;\n        uniswapRouter=IUniswapV2Router02(_uniswapRouterAddress);\n        dummyToken=_dummyToken;\n        weth=IERC20(uniswapRouter.WETH());\n    }\n\n    function startClaimPoint() public {\n        require(!isStarted,\"Already started !\");\n        isStarted=true;\n\n        evaluator.ex1_showIHaveTokens();\n        //evaluator.submitExercice(solution);\n    }\n\n    function buyToken() public payable {\n\n        address [] memory path  = new address[](2);\n        path[0] = uniswapRouter.WETH();\n        path[1]= address(dummyToken);\n        uint256[] memory amounts = uniswapRouter.swapExactETHForTokens{ value: msg.value }(0, path, address(this), block.timestamp + 15);\n\n    }\n\n\n    function getPoint() public view returns (uint256){\n        return tdToken.balanceOf(address(this));\n    }\n\n    function getFactory() public view returns (address){\n        return uniswapRouter.factory();\n    }\n\n    receive() external payable {}\n}\n",
  "sourcePath": "/Users/antoinerevel/Documents/Cours/ESILV A4/Decentralized Finance/TD02 AMM-101/amm-101/contracts/AntoineRevel_SolutionTest.sol",
  "compiler": {
    "name": "solc",
    "version": "0.6.2+commit.bacdbe57.Emscripten.clang"
  },
  "schemaVersion": "3.4.10",
  "updatedAt": "2023-02-18T11:33:47.934Z",
  "devdoc": {
    "methods": {}
  },
  "userdoc": {
    "methods": {}
  }
}