{
  "contractName": "AntoineRevel_SolutionTest",
  "abi": [
    {
      "inputs": [
        {
          "internalType": "contract IExerciceSolution",
          "name": "_solution",
          "type": "address"
        },
        {
          "internalType": "address payable",
          "name": "_evaluator",
          "type": "address"
        },
        {
          "internalType": "address",
          "name": "_uniswapRouterAddress",
          "type": "address"
        },
        {
          "internalType": "address",
          "name": "_dummyToken",
          "type": "address"
        },
        {
          "internalType": "address",
          "name": "_tdToken",
          "type": "address"
        }
      ],
      "stateMutability": "nonpayable",
      "type": "constructor"
    },
    {
      "inputs": [],
      "name": "uniswapV2Factory",
      "outputs": [
        {
          "internalType": "contract IUniswapV2Factory",
          "name": "",
          "type": "address"
        }
      ],
      "stateMutability": "view",
      "type": "function"
    },
    {
      "stateMutability": "payable",
      "type": "receive"
    },
    {
      "inputs": [],
      "name": "start",
      "outputs": [],
      "stateMutability": "payable",
      "type": "function"
    },
    {
      "inputs": [],
      "name": "getPoint",
      "outputs": [
        {
          "internalType": "uint256",
          "name": "",
          "type": "uint256"
        }
      ],
      "stateMutability": "view",
      "type": "function"
    }
  ],
  "bytecode": "0x608060405234801561001057600080fd5b50604051610e0b380380610e0b833981810160405260a081101561003357600080fd5b810190808051906020019092919080519060200190929190805190602001909291908051906020019092919080519060200190929190505050836000806101000a81548173ffffffffffffffffffffffffffffffffffffffff021916908373ffffffffffffffffffffffffffffffffffffffff16021790555080600160006101000a81548173ffffffffffffffffffffffffffffffffffffffff021916908373ffffffffffffffffffffffffffffffffffffffff16021790555084600260006101000a81548173ffffffffffffffffffffffffffffffffffffffff021916908373ffffffffffffffffffffffffffffffffffffffff16021790555082600360006101000a81548173ffffffffffffffffffffffffffffffffffffffff021916908373ffffffffffffffffffffffffffffffffffffffff160217905550600360009054906101000a900473ffffffffffffffffffffffffffffffffffffffff1673ffffffffffffffffffffffffffffffffffffffff1663c45a01556040518163ffffffff1660e01b815260040160206040518083038186803b1580156101d757600080fd5b505afa1580156101eb573d6000803e3d6000fd5b505050506040513d602081101561020157600080fd5b8101908080519060200190929190505050600460006101000a81548173ffffffffffffffffffffffffffffffffffffffff021916908373ffffffffffffffffffffffffffffffffffffffff16021790555081600560006101000a81548173ffffffffffffffffffffffffffffffffffffffff021916908373ffffffffffffffffffffffffffffffffffffffff16021790555081600660006101000a81548173ffffffffffffffffffffffffffffffffffffffff021916908373ffffffffffffffffffffffffffffffffffffffff160217905550600360009054906101000a900473ffffffffffffffffffffffffffffffffffffffff1673ffffffffffffffffffffffffffffffffffffffff1663ad5c46486040518163ffffffff1660e01b815260040160206040518083038186803b15801561033c57600080fd5b505afa158015610350573d6000803e3d6000fd5b505050506040513d602081101561036657600080fd5b8101908080519060200190929190505050600760006101000a81548173ffffffffffffffffffffffffffffffffffffffff021916908373ffffffffffffffffffffffffffffffffffffffff160217905550600760009054906101000a900473ffffffffffffffffffffffffffffffffffffffff16600860006101000a81548173ffffffffffffffffffffffffffffffffffffffff021916908373ffffffffffffffffffffffffffffffffffffffff16021790555050505050506109dd8061042e6000396000f3fe6080604052600436106100385760003560e01c806359d0f713146100445780635bea9faa1461009b578063be9a6555146100c65761003f565b3661003f57005b600080fd5b34801561005057600080fd5b506100596100d0565b604051808273ffffffffffffffffffffffffffffffffffffffff1673ffffffffffffffffffffffffffffffffffffffff16815260200191505060405180910390f35b3480156100a757600080fd5b506100b06100f6565b6040518082815260200191505060405180910390f35b6100ce6101d7565b005b600460009054906101000a900473ffffffffffffffffffffffffffffffffffffffff1681565b6000600160009054906101000a900473ffffffffffffffffffffffffffffffffffffffff1673ffffffffffffffffffffffffffffffffffffffff166370a08231306040518263ffffffff1660e01b8152600401808273ffffffffffffffffffffffffffffffffffffffff1673ffffffffffffffffffffffffffffffffffffffff16815260200191505060206040518083038186803b15801561019757600080fd5b505afa1580156101ab573d6000803e3d6000fd5b505050506040513d60208110156101c157600080fd5b8101908080519060200190929190505050905090565b6101df6101e9565b6101e7610555565b565b6060600260405190808252806020026020018201604052801561021b5781602001602082028038833980820191505090505b509050600760009054906101000a900473ffffffffffffffffffffffffffffffffffffffff168160008151811061024e57fe5b602002602001019073ffffffffffffffffffffffffffffffffffffffff16908173ffffffffffffffffffffffffffffffffffffffff1681525050600560009054906101000a900473ffffffffffffffffffffffffffffffffffffffff16816001815181106102b857fe5b602002602001019073ffffffffffffffffffffffffffffffffffffffff16908173ffffffffffffffffffffffffffffffffffffffff1681525050600360009054906101000a900473ffffffffffffffffffffffffffffffffffffffff1673ffffffffffffffffffffffffffffffffffffffff16637ff36ab56002348161033a57fe5b0460008430600f42016040518663ffffffff1660e01b815260040180858152602001806020018473ffffffffffffffffffffffffffffffffffffffff1673ffffffffffffffffffffffffffffffffffffffff168152602001838152602001828103825285818151815260200191508051906020019060200280838360005b838110156103d35780820151818401526020810190506103b8565b50505050905001955050505050506000604051808303818588803b1580156103fa57600080fd5b505af115801561040e573d6000803e3d6000fd5b50505050506040513d6000823e3d601f19601f82011682018060405250602081101561043957600080fd5b810190808051604051939291908464010000000082111561045957600080fd5b8382019150602082018581111561046f57600080fd5b825186602082028301116401000000008211171561048c57600080fd5b8083526020830192505050908051906020019060200280838360005b838110156104c35780820151818401526020810190506104a8565b50505050905001604052505050506000809054906101000a900473ffffffffffffffffffffffffffffffffffffffff1673ffffffffffffffffffffffffffffffffffffffff166352954cf36040518163ffffffff1660e01b8152600401600060405180830381600087803b15801561053a57600080fd5b505af115801561054e573d6000803e3d6000fd5b5050505050565b6000600660009054906101000a900473ffffffffffffffffffffffffffffffffffffffff1673ffffffffffffffffffffffffffffffffffffffff166370a08231306040518263ffffffff1660e01b8152600401808273ffffffffffffffffffffffffffffffffffffffff1673ffffffffffffffffffffffffffffffffffffffff16815260200191505060206040518083038186803b1580156105f657600080fd5b505afa15801561060a573d6000803e3d6000fd5b505050506040513d602081101561062057600080fd5b81019080805190602001909291905050509050600660009054906101000a900473ffffffffffffffffffffffffffffffffffffffff1673ffffffffffffffffffffffffffffffffffffffff1663095ea7b3600360009054906101000a900473ffffffffffffffffffffffffffffffffffffffff16836040518363ffffffff1660e01b8152600401808373ffffffffffffffffffffffffffffffffffffffff1673ffffffffffffffffffffffffffffffffffffffff16815260200182815260200192505050602060405180830381600087803b1580156106fe57600080fd5b505af1158015610712573d6000803e3d6000fd5b505050506040513d602081101561072857600080fd5b81019080805190602001909291905050506107ab576040517f08c379a00000000000000000000000000000000000000000000000000000000081526004018080602001828103825260158152602001807f746f6b656e20617070726f766564206661696c6564000000000000000000000081525060200191505060405180910390fd5b600360009054906101000a900473ffffffffffffffffffffffffffffffffffffffff1673ffffffffffffffffffffffffffffffffffffffff1663f305d719600234816107f357fe5b04600560009054906101000a900473ffffffffffffffffffffffffffffffffffffffff168460008030600f42016040518863ffffffff1660e01b8152600401808773ffffffffffffffffffffffffffffffffffffffff1673ffffffffffffffffffffffffffffffffffffffff1681526020018681526020018581526020018481526020018373ffffffffffffffffffffffffffffffffffffffff1673ffffffffffffffffffffffffffffffffffffffff16815260200182815260200196505050505050506060604051808303818588803b1580156108d057600080fd5b505af11580156108e4573d6000803e3d6000fd5b50505050506040513d60608110156108fb57600080fd5b810190808051906020019092919080519060200190929190805190602001909291905050505050506000809054906101000a900473ffffffffffffffffffffffffffffffffffffffff1673ffffffffffffffffffffffffffffffffffffffff1663c75993936040518163ffffffff1660e01b8152600401600060405180830381600087803b15801561098c57600080fd5b505af11580156109a0573d6000803e3d6000fd5b505050505056fea26469706673582212208a75b11cada58c5682381e3a19817cbe0a4f620c61ea0c9c9dd1d7489de7e1cf64736f6c63430006020033",
  "source": "pragma solidity ^0.6.2;\nimport \"./Evaluator.sol\";\nimport \"./DummyToken.sol\";\n\nimport \"./utils/IUniswapV2Factory.sol\";\nimport \"./utils/IUniswapV2Pair.sol\";\n\nimport '@uniswap/v2-periphery/contracts/interfaces/IUniswapV2Router02.sol';\nimport \"@openzeppelin/contracts/token/ERC20/ERC20.sol\";\n\ncontract AntoineRevel_SolutionTest {\n    Evaluator evaluator;\n    ERC20 tdToken;\n    IExerciceSolution solution;\n\n\n    IUniswapV2Router02 uniswapRouter;\n    IUniswapV2Factory public uniswapV2Factory;\n\n    address dummyTokenAddress;\n    DummyToken private dummyToken;\n\n    address wethAddress;\n    IERC20 private weth;\n\n    constructor(IExerciceSolution _solution, address payable _evaluator,address _uniswapRouterAddress,address _dummyToken,address _tdToken) public{\n        evaluator = Evaluator(_evaluator);\n        tdToken=ERC20(_tdToken);\n        solution = _solution;\n        uniswapRouter=IUniswapV2Router02(_uniswapRouterAddress);\n        uniswapV2Factory=IUniswapV2Factory(uniswapRouter.factory());\n        dummyTokenAddress=_dummyToken;\n        dummyToken=DummyToken(_dummyToken);\n        wethAddress=uniswapRouter.WETH();\n        weth=ERC20(wethAddress);\n    }\n\n    function start() external payable {\n        buyTokenEx1();\n        addLiquidityEx2();\n    }\n\n    function buyTokenEx1() private {\n        address [] memory path  = new address[](2);\n        path[0] = wethAddress;\n        path[1]= dummyTokenAddress;\n        uniswapRouter.swapExactETHForTokens{ value: msg.value/2 }(0, path, address(this), block.timestamp + 15);\n        evaluator.ex1_showIHaveTokens();\n    }\n\n    function addLiquidityEx2() private {\n        uint256 balanceDT=dummyToken.balanceOf(address(this));\n        require(dummyToken.approve(address(uniswapRouter), balanceDT),\"token approved failed\");\n        uniswapRouter.addLiquidityETH{ value: msg.value/2 }(dummyTokenAddress,balanceDT,0,0,address(this),block.timestamp + 15);\n        evaluator.ex2_showIProvidedLiquidity();\n    }\n\n\n\n\n    function getPoint() public view returns (uint256){\n        return tdToken.balanceOf(address(this));\n    }\n\n\n    receive() external payable {}\n}\n",
  "sourcePath": "/Users/antoinerevel/Documents/Cours/ESILV A4/Decentralized Finance/TD02 AMM-101/amm-101/contracts/AntoineRevel_SolutionTest.sol",
  "compiler": {
    "name": "solc",
    "version": "0.6.2+commit.bacdbe57.Emscripten.clang"
  },
  "schemaVersion": "3.4.10",
  "updatedAt": "2023-02-20T00:59:27.778Z",
  "devdoc": {
    "methods": {}
  },
  "userdoc": {
    "methods": {}
  }
}