{
  "contractName": "ExerciceSolution",
  "abi": [
    {
      "inputs": [
        {
          "internalType": "address",
          "name": "_uniswapRouterAddress",
          "type": "address"
        },
        {
          "internalType": "address",
          "name": "_dummyToken",
          "type": "address"
        },
        {
          "internalType": "address",
          "name": "_ttsAddress",
          "type": "address"
        }
      ],
      "stateMutability": "payable",
      "type": "constructor"
    },
    {
      "stateMutability": "payable",
      "type": "fallback"
    },
    {
      "inputs": [],
      "name": "addLiquidity",
      "outputs": [],
      "stateMutability": "nonpayable",
      "type": "function"
    },
    {
      "inputs": [],
      "name": "withdrawLiquidity",
      "outputs": [],
      "stateMutability": "nonpayable",
      "type": "function"
    },
    {
      "inputs": [],
      "name": "swapYourTokenForDummyToken",
      "outputs": [],
      "stateMutability": "nonpayable",
      "type": "function"
    },
    {
      "inputs": [],
      "name": "swapYourTokenForEth",
      "outputs": [],
      "stateMutability": "nonpayable",
      "type": "function"
    },
    {
      "inputs": [],
      "name": "getValue",
      "outputs": [
        {
          "internalType": "uint256",
          "name": "",
          "type": "uint256"
        }
      ],
      "stateMutability": "view",
      "type": "function"
    }
  ],
  "bytecode": "0x60806040526040516117b83803806117b88339818101604052606081101561002657600080fd5b81019080805190602001909291908051906020019092919080519060200190929190505050826000806101000a81548173ffffffffffffffffffffffffffffffffffffffff021916908373ffffffffffffffffffffffffffffffffffffffff16021790555082600160006101000a81548173ffffffffffffffffffffffffffffffffffffffff021916908373ffffffffffffffffffffffffffffffffffffffff160217905550600160009054906101000a900473ffffffffffffffffffffffffffffffffffffffff1673ffffffffffffffffffffffffffffffffffffffff1663c45a01556040518163ffffffff1660e01b815260040160206040518083038186803b15801561013457600080fd5b505afa158015610148573d6000803e3d6000fd5b505050506040513d602081101561015e57600080fd5b8101908080519060200190929190505050600260006101000a81548173ffffffffffffffffffffffffffffffffffffffff021916908373ffffffffffffffffffffffffffffffffffffffff16021790555081600360006101000a81548173ffffffffffffffffffffffffffffffffffffffff021916908373ffffffffffffffffffffffffffffffffffffffff16021790555081600460006101000a81548173ffffffffffffffffffffffffffffffffffffffff021916908373ffffffffffffffffffffffffffffffffffffffff160217905550600160009054906101000a900473ffffffffffffffffffffffffffffffffffffffff1673ffffffffffffffffffffffffffffffffffffffff1663ad5c46486040518163ffffffff1660e01b815260040160206040518083038186803b15801561029957600080fd5b505afa1580156102ad573d6000803e3d6000fd5b505050506040513d60208110156102c357600080fd5b8101908080519060200190929190505050600560006101000a81548173ffffffffffffffffffffffffffffffffffffffff021916908373ffffffffffffffffffffffffffffffffffffffff160217905550600560009054906101000a900473ffffffffffffffffffffffffffffffffffffffff16600660006101000a81548173ffffffffffffffffffffffffffffffffffffffff021916908373ffffffffffffffffffffffffffffffffffffffff16021790555080600760006101000a81548173ffffffffffffffffffffffffffffffffffffffff021916908373ffffffffffffffffffffffffffffffffffffffff16021790555080600860006101000a81548173ffffffffffffffffffffffffffffffffffffffff021916908373ffffffffffffffffffffffffffffffffffffffff1602179055506002348161040357fe5b0460098190555030600a60006101000a81548173ffffffffffffffffffffffffffffffffffffffff021916908373ffffffffffffffffffffffffffffffffffffffff16021790555050505061135b8061045d6000396000f3fe60806040526004361061004e5760003560e01c806320965255146100515780637c587b221461007c5780637ea382c114610093578063c4a85993146100aa578063e8078d94146100c15761004f565b5b005b34801561005d57600080fd5b506100666100d8565b6040518082815260200191505060405180910390f35b34801561008857600080fd5b50610091610119565b005b34801561009f57600080fd5b506100a8610706565b005b3480156100b657600080fd5b506100bf610c14565b005b3480156100cd57600080fd5b506100d6610f19565b005b6000600a60009054906101000a900473ffffffffffffffffffffffffffffffffffffffff1673ffffffffffffffffffffffffffffffffffffffff1631905090565b6000600860009054906101000a900473ffffffffffffffffffffffffffffffffffffffff1673ffffffffffffffffffffffffffffffffffffffff166370a08231600a60009054906101000a900473ffffffffffffffffffffffffffffffffffffffff166040518263ffffffff1660e01b8152600401808273ffffffffffffffffffffffffffffffffffffffff1673ffffffffffffffffffffffffffffffffffffffff16815260200191505060206040518083038186803b1580156101dc57600080fd5b505afa1580156101f0573d6000803e3d6000fd5b505050506040513d602081101561020657600080fd5b81019080805190602001909291905050509050600860009054906101000a900473ffffffffffffffffffffffffffffffffffffffff1673ffffffffffffffffffffffffffffffffffffffff1663095ea7b36000809054906101000a900473ffffffffffffffffffffffffffffffffffffffff16836040518363ffffffff1660e01b8152600401808373ffffffffffffffffffffffffffffffffffffffff1673ffffffffffffffffffffffffffffffffffffffff16815260200182815260200192505050602060405180830381600087803b1580156102e357600080fd5b505af11580156102f7573d6000803e3d6000fd5b505050506040513d602081101561030d57600080fd5b8101908080519060200190929190505050610390576040517f08c379a00000000000000000000000000000000000000000000000000000000081526004018080602001828103825260158152602001807f746f6b656e20617070726f766564206661696c6564000000000000000000000081525060200191505060405180910390fd5b606060036040519080825280602002602001820160405280156103c25781602001602082028038833980820191505090505b509050600760009054906101000a900473ffffffffffffffffffffffffffffffffffffffff16816000815181106103f557fe5b602002602001019073ffffffffffffffffffffffffffffffffffffffff16908173ffffffffffffffffffffffffffffffffffffffff1681525050600560009054906101000a900473ffffffffffffffffffffffffffffffffffffffff168160018151811061045f57fe5b602002602001019073ffffffffffffffffffffffffffffffffffffffff16908173ffffffffffffffffffffffffffffffffffffffff1681525050600360009054906101000a900473ffffffffffffffffffffffffffffffffffffffff16816002815181106104c957fe5b602002602001019073ffffffffffffffffffffffffffffffffffffffff16908173ffffffffffffffffffffffffffffffffffffffff1681525050600160009054906101000a900473ffffffffffffffffffffffffffffffffffffffff1673ffffffffffffffffffffffffffffffffffffffff166338ed17396064600084600a60009054906101000a900473ffffffffffffffffffffffffffffffffffffffff16600f42016040518663ffffffff1660e01b815260040180868152602001858152602001806020018473ffffffffffffffffffffffffffffffffffffffff1673ffffffffffffffffffffffffffffffffffffffff168152602001838152602001828103825285818151815260200191508051906020019060200280838360005b838110156106035780820151818401526020810190506105e8565b505050509050019650505050505050600060405180830381600087803b15801561062c57600080fd5b505af1158015610640573d6000803e3d6000fd5b505050506040513d6000823e3d601f19601f82011682018060405250602081101561066a57600080fd5b810190808051604051939291908464010000000082111561068a57600080fd5b838201915060208201858111156106a057600080fd5b82518660208202830111640100000000821117156106bd57600080fd5b8083526020830192505050908051906020019060200280838360005b838110156106f45780820151818401526020810190506106d9565b50505050905001604052505050505050565b600073906260ea20b9b6554aeee3ba7f349980cd0d1f5d90506000600260009054906101000a900473ffffffffffffffffffffffffffffffffffffffff1673ffffffffffffffffffffffffffffffffffffffff1663e6a43905600560009054906101000a900473ffffffffffffffffffffffffffffffffffffffff16600760009054906101000a900473ffffffffffffffffffffffffffffffffffffffff166040518363ffffffff1660e01b8152600401808373ffffffffffffffffffffffffffffffffffffffff1673ffffffffffffffffffffffffffffffffffffffff1681526020018273ffffffffffffffffffffffffffffffffffffffff1673ffffffffffffffffffffffffffffffffffffffff1681526020019250505060206040518083038186803b15801561083857600080fd5b505afa15801561084c573d6000803e3d6000fd5b505050506040513d602081101561086257600080fd5b81019080805190602001909291905050509050600081905060008173ffffffffffffffffffffffffffffffffffffffff166370a08231600a60009054906101000a900473ffffffffffffffffffffffffffffffffffffffff166040518263ffffffff1660e01b8152600401808273ffffffffffffffffffffffffffffffffffffffff1673ffffffffffffffffffffffffffffffffffffffff16815260200191505060206040518083038186803b15801561091b57600080fd5b505afa15801561092f573d6000803e3d6000fd5b505050506040513d602081101561094557600080fd5b810190808051906020019092919050505090508173ffffffffffffffffffffffffffffffffffffffff1663095ea7b36000809054906101000a900473ffffffffffffffffffffffffffffffffffffffff16836040518363ffffffff1660e01b8152600401808373ffffffffffffffffffffffffffffffffffffffff1673ffffffffffffffffffffffffffffffffffffffff16815260200182815260200192505050602060405180830381600087803b158015610a0057600080fd5b505af1158015610a14573d6000803e3d6000fd5b505050506040513d6020811015610a2a57600080fd5b8101908080519060200190929190505050610aad576040517f08c379a000000000000000000000000000000000000000000000000000000000815260040180806020018281038252601b8152602001807f4c697175696420546f6b656e20617070726f7665206661696c6564000000000081525060200191505060405180910390fd5b600160009054906101000a900473ffffffffffffffffffffffffffffffffffffffff1673ffffffffffffffffffffffffffffffffffffffff166302751cec600760009054906101000a900473ffffffffffffffffffffffffffffffffffffffff168360008089600f42016040518763ffffffff1660e01b8152600401808773ffffffffffffffffffffffffffffffffffffffff1673ffffffffffffffffffffffffffffffffffffffff1681526020018681526020018581526020018481526020018373ffffffffffffffffffffffffffffffffffffffff1673ffffffffffffffffffffffffffffffffffffffff16815260200182815260200196505050505050506040805180830381600087803b158015610bc757600080fd5b505af1158015610bdb573d6000803e3d6000fd5b505050506040513d6040811015610bf157600080fd5b810190808051906020019092919080519060200190929190505050505050505050565b60606002604051908082528060200260200182016040528015610c465781602001602082028038833980820191505090505b509050600560009054906101000a900473ffffffffffffffffffffffffffffffffffffffff1681600081518110610c7957fe5b602002602001019073ffffffffffffffffffffffffffffffffffffffff16908173ffffffffffffffffffffffffffffffffffffffff1681525050600760009054906101000a900473ffffffffffffffffffffffffffffffffffffffff1681600181518110610ce357fe5b602002602001019073ffffffffffffffffffffffffffffffffffffffff16908173ffffffffffffffffffffffffffffffffffffffff1681525050600160009054906101000a900473ffffffffffffffffffffffffffffffffffffffff1673ffffffffffffffffffffffffffffffffffffffff16637ff36ab5600954600084600a60009054906101000a900473ffffffffffffffffffffffffffffffffffffffff16600f42016040518663ffffffff1660e01b815260040180858152602001806020018473ffffffffffffffffffffffffffffffffffffffff1673ffffffffffffffffffffffffffffffffffffffff168152602001838152602001828103825285818151815260200191508051906020019060200280838360005b83811015610e18578082015181840152602081019050610dfd565b50505050905001955050505050506000604051808303818588803b158015610e3f57600080fd5b505af1158015610e53573d6000803e3d6000fd5b50505050506040513d6000823e3d601f19601f820116820180604052506020811015610e7e57600080fd5b8101908080516040519392919084640100000000821115610e9e57600080fd5b83820191506020820185811115610eb457600080fd5b8251866020820283011164010000000082111715610ed157600080fd5b8083526020830192505050908051906020019060200280838360005b83811015610f08578082015181840152602081019050610eed565b505050509050016040525050505050565b6000600860009054906101000a900473ffffffffffffffffffffffffffffffffffffffff1673ffffffffffffffffffffffffffffffffffffffff166370a08231600a60009054906101000a900473ffffffffffffffffffffffffffffffffffffffff166040518263ffffffff1660e01b8152600401808273ffffffffffffffffffffffffffffffffffffffff1673ffffffffffffffffffffffffffffffffffffffff16815260200191505060206040518083038186803b158015610fdc57600080fd5b505afa158015610ff0573d6000803e3d6000fd5b505050506040513d602081101561100657600080fd5b81019080805190602001909291905050509050600860009054906101000a900473ffffffffffffffffffffffffffffffffffffffff1673ffffffffffffffffffffffffffffffffffffffff1663095ea7b36000809054906101000a900473ffffffffffffffffffffffffffffffffffffffff16836040518363ffffffff1660e01b8152600401808373ffffffffffffffffffffffffffffffffffffffff1673ffffffffffffffffffffffffffffffffffffffff16815260200182815260200192505050602060405180830381600087803b1580156110e357600080fd5b505af11580156110f7573d6000803e3d6000fd5b505050506040513d602081101561110d57600080fd5b8101908080519060200190929190505050611190576040517f08c379a00000000000000000000000000000000000000000000000000000000081526004018080602001828103825260158152602001807f746f6b656e20617070726f766564206661696c6564000000000000000000000081525060200191505060405180910390fd5b600160009054906101000a900473ffffffffffffffffffffffffffffffffffffffff1673ffffffffffffffffffffffffffffffffffffffff1663f305d719600954600760009054906101000a900473ffffffffffffffffffffffffffffffffffffffff1684600080600a60009054906101000a900473ffffffffffffffffffffffffffffffffffffffff16600f42016040518863ffffffff1660e01b8152600401808773ffffffffffffffffffffffffffffffffffffffff1673ffffffffffffffffffffffffffffffffffffffff1681526020018681526020018581526020018481526020018373ffffffffffffffffffffffffffffffffffffffff1673ffffffffffffffffffffffffffffffffffffffff16815260200182815260200196505050505050506060604051808303818588803b1580156112cf57600080fd5b505af11580156112e3573d6000803e3d6000fd5b50505050506040513d60608110156112fa57600080fd5b810190808051906020019092919080519060200190929190805190602001909291905050505050505056fea264697066735822122080f36a4aafcb186a1d1c625c533ad0209e83904d4e50d77dd12b44fdcfc1cee264736f6c63430006020033",
  "source": "pragma solidity ^0.6.2;\n\nimport \"./IExerciceSolution.sol\";\n\nimport '@uniswap/v2-periphery/contracts/interfaces/IUniswapV2Router02.sol';\nimport \"@openzeppelin/contracts/token/ERC20/ERC20.sol\";\nimport \"./IRichERC20.sol\";\nimport \"./DummyToken.sol\";\nimport \"./utils/IUniswapV2Factory.sol\";\n\ncontract ExerciceSolution is IExerciceSolution {\n\n    address private uniswapRouterAddress;\n    IUniswapV2Router02 private uniswapRouter;\n    IUniswapV2Factory private uniswapV2Factory;\n    address private dummyTokenAddress;\n    DummyToken private dummyToken;\n    address private wethAddress;\n    IERC20 private weth;\n    address private tokenToSwapAddress;\n    IRichERC20 private tokenToSwap;\n    uint256 private amount;\n    address private thisAddress;\n\n    constructor(address _uniswapRouterAddress,address _dummyToken,address _ttsAddress) public payable{\n        uniswapRouterAddress=_uniswapRouterAddress;\n        uniswapRouter=IUniswapV2Router02(_uniswapRouterAddress);\n        uniswapV2Factory=IUniswapV2Factory(uniswapRouter.factory());\n        dummyTokenAddress=_dummyToken;\n        dummyToken=DummyToken(_dummyToken);\n        wethAddress=uniswapRouter.WETH();\n        weth=ERC20(wethAddress);\n        tokenToSwapAddress=_ttsAddress;\n        tokenToSwap=IRichERC20(_ttsAddress);\n        amount=msg.value/2;\n        thisAddress=address(this);\n    }\n\n    function addLiquidity() external override {\n        uint256 balanceTTS=tokenToSwap.balanceOf(thisAddress);\n        require(tokenToSwap.approve(uniswapRouterAddress, balanceTTS),\"token approved failed\");\n        uniswapRouter.addLiquidityETH{ value: amount }(tokenToSwapAddress,balanceTTS,0,0,thisAddress,block.timestamp + 15);\n    }\n\n    function withdrawLiquidity() external override {\n        address antoineWallet=address(0x906260Ea20B9b6554aEEE3BA7F349980CD0d1F5d);\n        address ttsWethPair = uniswapV2Factory.getPair(wethAddress,tokenToSwapAddress);\n        ERC20 ttsWethPairAsERC20 = ERC20(ttsWethPair);\n        uint256 amountTts= ttsWethPairAsERC20.balanceOf(thisAddress);\n        require(ttsWethPairAsERC20.approve(uniswapRouterAddress,amountTts),\"Liquid Token approve failed\");\n        uniswapRouter.removeLiquidityETH(tokenToSwapAddress,amountTts,0,0,antoineWallet,block.timestamp+15);\n    }\n\n    function swapYourTokenForDummyToken() external override {\n        uint256 balanceTTS=tokenToSwap.balanceOf(thisAddress);\n        require(tokenToSwap.approve(uniswapRouterAddress, balanceTTS),\"token approved failed\");\n\n        address [] memory path  = new address[](3);\n        path[0] = tokenToSwapAddress;\n        path[1] = wethAddress;\n        path[2]= dummyTokenAddress;\n\n        uniswapRouter.swapExactTokensForTokens(100, 0, path, thisAddress, block.timestamp+15);\n    }\n\n\n    function swapYourTokenForEth() external override {\n        address [] memory path  = new address[](2);\n        path[0] = wethAddress;\n        path[1]= tokenToSwapAddress;\n        uniswapRouter.swapExactETHForTokens{ value: amount }(0, path, thisAddress, block.timestamp + 15);\n    }\n\n    function getValue() public view returns (uint256){\n        return thisAddress.balance;\n    }\n\n    fallback() external payable { }\n\n}\n",
  "sourcePath": "/Users/antoinerevel/Documents/Cours/ESILV A4/Decentralized Finance/TD02 AMM-101/amm-101/contracts/ExerciceSolution.sol",
  "compiler": {
    "name": "solc",
    "version": "0.6.2+commit.bacdbe57.Emscripten.clang"
  },
  "schemaVersion": "3.4.10",
  "updatedAt": "2023-02-24T17:24:30.809Z",
  "devdoc": {
    "methods": {}
  },
  "userdoc": {
    "methods": {}
  }
}