{
  "contractName": "ExerciceSolution",
  "abi": [
    {
      "inputs": [
        {
          "internalType": "address",
          "name": "_uniswapRouterAddress",
          "type": "address"
        },
        {
          "internalType": "address",
          "name": "_dummyToken",
          "type": "address"
        },
        {
          "internalType": "address",
          "name": "_ttsAddress",
          "type": "address"
        }
      ],
      "stateMutability": "payable",
      "type": "constructor"
    },
    {
      "inputs": [],
      "name": "uniswapV2Factory",
      "outputs": [
        {
          "internalType": "contract IUniswapV2Factory",
          "name": "",
          "type": "address"
        }
      ],
      "stateMutability": "view",
      "type": "function"
    },
    {
      "inputs": [],
      "name": "addLiquidity",
      "outputs": [],
      "stateMutability": "nonpayable",
      "type": "function"
    },
    {
      "inputs": [],
      "name": "withdrawLiquidity",
      "outputs": [],
      "stateMutability": "nonpayable",
      "type": "function"
    },
    {
      "inputs": [],
      "name": "swapYourTokenForDummyToken",
      "outputs": [],
      "stateMutability": "nonpayable",
      "type": "function"
    },
    {
      "inputs": [],
      "name": "swapYourTokenForEth",
      "outputs": [],
      "stateMutability": "nonpayable",
      "type": "function"
    },
    {
      "inputs": [],
      "name": "getValue",
      "outputs": [
        {
          "internalType": "uint256",
          "name": "",
          "type": "uint256"
        }
      ],
      "stateMutability": "view",
      "type": "function"
    }
  ],
  "bytecode": "0x6080604052604051610daf380380610daf8339818101604052606081101561002657600080fd5b81019080805190602001909291908051906020019092919080519060200190929190505050826000806101000a81548173ffffffffffffffffffffffffffffffffffffffff021916908373ffffffffffffffffffffffffffffffffffffffff1602179055506000809054906101000a900473ffffffffffffffffffffffffffffffffffffffff1673ffffffffffffffffffffffffffffffffffffffff1663c45a01556040518163ffffffff1660e01b815260040160206040518083038186803b1580156100f257600080fd5b505afa158015610106573d6000803e3d6000fd5b505050506040513d602081101561011c57600080fd5b8101908080519060200190929190505050600160006101000a81548173ffffffffffffffffffffffffffffffffffffffff021916908373ffffffffffffffffffffffffffffffffffffffff16021790555081600260006101000a81548173ffffffffffffffffffffffffffffffffffffffff021916908373ffffffffffffffffffffffffffffffffffffffff16021790555081600360006101000a81548173ffffffffffffffffffffffffffffffffffffffff021916908373ffffffffffffffffffffffffffffffffffffffff1602179055506000809054906101000a900473ffffffffffffffffffffffffffffffffffffffff1673ffffffffffffffffffffffffffffffffffffffff1663ad5c46486040518163ffffffff1660e01b815260040160206040518083038186803b15801561025657600080fd5b505afa15801561026a573d6000803e3d6000fd5b505050506040513d602081101561028057600080fd5b8101908080519060200190929190505050600460006101000a81548173ffffffffffffffffffffffffffffffffffffffff021916908373ffffffffffffffffffffffffffffffffffffffff160217905550600460009054906101000a900473ffffffffffffffffffffffffffffffffffffffff16600560006101000a81548173ffffffffffffffffffffffffffffffffffffffff021916908373ffffffffffffffffffffffffffffffffffffffff16021790555080600660006101000a81548173ffffffffffffffffffffffffffffffffffffffff021916908373ffffffffffffffffffffffffffffffffffffffff16021790555080600760006101000a81548173ffffffffffffffffffffffffffffffffffffffff021916908373ffffffffffffffffffffffffffffffffffffffff1602179055505050506109e7806103c86000396000f3fe608060405234801561001057600080fd5b50600436106100625760003560e01c8063209652551461006757806359d0f713146100855780637c587b22146100cf5780637ea382c1146100d9578063c4a85993146100e3578063e8078d94146100ed575b600080fd5b61006f6100f7565b6040518082815260200191505060405180910390f35b61008d6100ff565b604051808273ffffffffffffffffffffffffffffffffffffffff1673ffffffffffffffffffffffffffffffffffffffff16815260200191505060405180910390f35b6100d7610125565b005b6100e16106cd565b005b6100eb6106cf565b005b6100f56109af565b005b600047905090565b600160009054906101000a900473ffffffffffffffffffffffffffffffffffffffff1681565b6000600760009054906101000a900473ffffffffffffffffffffffffffffffffffffffff1673ffffffffffffffffffffffffffffffffffffffff166370a08231306040518263ffffffff1660e01b8152600401808273ffffffffffffffffffffffffffffffffffffffff1673ffffffffffffffffffffffffffffffffffffffff16815260200191505060206040518083038186803b1580156101c657600080fd5b505afa1580156101da573d6000803e3d6000fd5b505050506040513d60208110156101f057600080fd5b81019080805190602001909291905050509050600760009054906101000a900473ffffffffffffffffffffffffffffffffffffffff1673ffffffffffffffffffffffffffffffffffffffff1663095ea7b36000809054906101000a900473ffffffffffffffffffffffffffffffffffffffff16836040518363ffffffff1660e01b8152600401808373ffffffffffffffffffffffffffffffffffffffff1673ffffffffffffffffffffffffffffffffffffffff16815260200182815260200192505050602060405180830381600087803b1580156102cd57600080fd5b505af11580156102e1573d6000803e3d6000fd5b505050506040513d60208110156102f757600080fd5b810190808051906020019092919050505061037a576040517f08c379a00000000000000000000000000000000000000000000000000000000081526004018080602001828103825260158152602001807f746f6b656e20617070726f766564206661696c6564000000000000000000000081525060200191505060405180910390fd5b606060036040519080825280602002602001820160405280156103ac5781602001602082028038833980820191505090505b509050600660009054906101000a900473ffffffffffffffffffffffffffffffffffffffff16816000815181106103df57fe5b602002602001019073ffffffffffffffffffffffffffffffffffffffff16908173ffffffffffffffffffffffffffffffffffffffff1681525050600460009054906101000a900473ffffffffffffffffffffffffffffffffffffffff168160018151811061044957fe5b602002602001019073ffffffffffffffffffffffffffffffffffffffff16908173ffffffffffffffffffffffffffffffffffffffff1681525050600260009054906101000a900473ffffffffffffffffffffffffffffffffffffffff16816002815181106104b357fe5b602002602001019073ffffffffffffffffffffffffffffffffffffffff16908173ffffffffffffffffffffffffffffffffffffffff16815250506000809054906101000a900473ffffffffffffffffffffffffffffffffffffffff1673ffffffffffffffffffffffffffffffffffffffff166338ed1739600a60008430600f42016040518663ffffffff1660e01b815260040180868152602001858152602001806020018473ffffffffffffffffffffffffffffffffffffffff1673ffffffffffffffffffffffffffffffffffffffff168152602001838152602001828103825285818151815260200191508051906020019060200280838360005b838110156105ca5780820151818401526020810190506105af565b505050509050019650505050505050600060405180830381600087803b1580156105f357600080fd5b505af1158015610607573d6000803e3d6000fd5b505050506040513d6000823e3d601f19601f82011682018060405250602081101561063157600080fd5b810190808051604051939291908464010000000082111561065157600080fd5b8382019150602082018581111561066757600080fd5b825186602082028301116401000000008211171561068457600080fd5b8083526020830192505050908051906020019060200280838360005b838110156106bb5780820151818401526020810190506106a0565b50505050905001604052505050505050565b565b606060026040519080825280602002602001820160405280156107015781602001602082028038833980820191505090505b509050600460009054906101000a900473ffffffffffffffffffffffffffffffffffffffff168160008151811061073457fe5b602002602001019073ffffffffffffffffffffffffffffffffffffffff16908173ffffffffffffffffffffffffffffffffffffffff1681525050600660009054906101000a900473ffffffffffffffffffffffffffffffffffffffff168160018151811061079e57fe5b602002602001019073ffffffffffffffffffffffffffffffffffffffff16908173ffffffffffffffffffffffffffffffffffffffff16815250506000809054906101000a900473ffffffffffffffffffffffffffffffffffffffff1673ffffffffffffffffffffffffffffffffffffffff16637ff36ab54760008430600f42016040518663ffffffff1660e01b815260040180858152602001806020018473ffffffffffffffffffffffffffffffffffffffff1673ffffffffffffffffffffffffffffffffffffffff168152602001838152602001828103825285818151815260200191508051906020019060200280838360005b838110156108ae578082015181840152602081019050610893565b50505050905001955050505050506000604051808303818588803b1580156108d557600080fd5b505af11580156108e9573d6000803e3d6000fd5b50505050506040513d6000823e3d601f19601f82011682018060405250602081101561091457600080fd5b810190808051604051939291908464010000000082111561093457600080fd5b8382019150602082018581111561094a57600080fd5b825186602082028301116401000000008211171561096757600080fd5b8083526020830192505050908051906020019060200280838360005b8381101561099e578082015181840152602081019050610983565b505050509050016040525050505050565b56fea26469706673582212201d7dadb1b20003e15aa73c57027006876a1419b4596a1f5b16624d571e1852e664736f6c63430006020033",
  "source": "pragma solidity ^0.6.2;\n\nimport \"./IExerciceSolution.sol\";\n\nimport '@uniswap/v2-periphery/contracts/interfaces/IUniswapV2Router02.sol';\nimport \"@openzeppelin/contracts/token/ERC20/ERC20.sol\";\nimport \"./IRichERC20.sol\";\nimport \"./DummyToken.sol\";\nimport \"./utils/IUniswapV2Factory.sol\";\n\ncontract ExerciceSolution is IExerciceSolution {\n    IUniswapV2Router02 uniswapRouter;\n    IUniswapV2Factory public uniswapV2Factory;\n\n    address dummyTokenAddress;\n    DummyToken private dummyToken;\n\n    address wethAddress;\n    IERC20 private weth;\n\n    address tokenToSwapAddress;\n    IRichERC20 private tokenToSwap;\n\n\n    constructor(address _uniswapRouterAddress,address _dummyToken,address _ttsAddress) public payable{\n        uniswapRouter=IUniswapV2Router02(_uniswapRouterAddress);\n        uniswapV2Factory=IUniswapV2Factory(uniswapRouter.factory());\n        dummyTokenAddress=_dummyToken;\n        dummyToken=DummyToken(_dummyToken);\n        wethAddress=uniswapRouter.WETH();\n        weth=ERC20(wethAddress);\n        tokenToSwapAddress=_ttsAddress;\n        tokenToSwap=IRichERC20(_ttsAddress);\n\n    }\n\n    function addLiquidity() external override {}\n\n    function withdrawLiquidity() external override {}\n\n    function swapYourTokenForDummyToken() external override {\n        //buyTts();\n        uint256 balanceTTS=tokenToSwap.balanceOf(address(this));\n        require(tokenToSwap.approve(address(uniswapRouter), balanceTTS),\"token approved failed\");\n\n        address [] memory path  = new address[](3);\n        path[0] = tokenToSwapAddress;\n        path[1] = wethAddress;\n        path[2]= dummyTokenAddress;\n\n        uniswapRouter.swapExactTokensForTokens(10, 0, path, address(this), block.timestamp+15);\n    }\n\n    function buyTts() private{\n        address [] memory path  = new address[](2);\n        path[0] = wethAddress;\n        path[1]= tokenToSwapAddress;\n        uniswapRouter.swapExactETHForTokens{ value: address(this).balance }(0, path, address(this), block.timestamp + 15);\n    }\n\n    function swapYourTokenForEth() external override {\n        address [] memory path  = new address[](2);\n        path[0] = wethAddress;\n        path[1]= tokenToSwapAddress;\n        uniswapRouter.swapExactETHForTokens{ value: address(this).balance }(0, path, address(this), block.timestamp + 15);\n    }\n\n    function getValue() public view returns (uint256){\n        return address(this).balance;\n    }\n}\n",
  "sourcePath": "/Users/antoinerevel/Documents/Cours/ESILV A4/Decentralized Finance/TD02 AMM-101/amm-101/contracts/ExerciceSolution.sol",
  "compiler": {
    "name": "solc",
    "version": "0.6.2+commit.bacdbe57.Emscripten.clang"
  },
  "schemaVersion": "3.4.10",
  "updatedAt": "2023-02-21T21:22:25.776Z",
  "devdoc": {
    "methods": {}
  },
  "userdoc": {
    "methods": {}
  }
}