{
  "contractName": "ExerciceSolution",
  "abi": [
    {
      "inputs": [
        {
          "internalType": "address",
          "name": "_uniswapRouterAddress",
          "type": "address"
        },
        {
          "internalType": "address",
          "name": "_dummyToken",
          "type": "address"
        },
        {
          "internalType": "address",
          "name": "_ttsAddress",
          "type": "address"
        }
      ],
      "stateMutability": "payable",
      "type": "constructor",
      "payable": true
    },
    {
      "inputs": [],
      "name": "uniswapV2Factory",
      "outputs": [
        {
          "internalType": "contract IUniswapV2Factory",
          "name": "",
          "type": "address"
        }
      ],
      "stateMutability": "view",
      "type": "function",
      "constant": true
    },
    {
      "inputs": [],
      "name": "addLiquidity",
      "outputs": [],
      "stateMutability": "nonpayable",
      "type": "function"
    },
    {
      "inputs": [],
      "name": "withdrawLiquidity",
      "outputs": [],
      "stateMutability": "nonpayable",
      "type": "function"
    },
    {
      "inputs": [],
      "name": "swapYourTokenForDummyToken",
      "outputs": [],
      "stateMutability": "nonpayable",
      "type": "function"
    },
    {
      "inputs": [],
      "name": "swapYourTokenForEth",
      "outputs": [],
      "stateMutability": "nonpayable",
      "type": "function"
    }
  ],
  "bytecode": "0x60806040526040516107d83803806107d88339818101604052606081101561002657600080fd5b81019080805190602001909291908051906020019092919080519060200190929190505050826000806101000a81548173ffffffffffffffffffffffffffffffffffffffff021916908373ffffffffffffffffffffffffffffffffffffffff1602179055506000809054906101000a900473ffffffffffffffffffffffffffffffffffffffff1673ffffffffffffffffffffffffffffffffffffffff1663c45a01556040518163ffffffff1660e01b815260040160206040518083038186803b1580156100f257600080fd5b505afa158015610106573d6000803e3d6000fd5b505050506040513d602081101561011c57600080fd5b8101908080519060200190929190505050600160006101000a81548173ffffffffffffffffffffffffffffffffffffffff021916908373ffffffffffffffffffffffffffffffffffffffff16021790555081600260006101000a81548173ffffffffffffffffffffffffffffffffffffffff021916908373ffffffffffffffffffffffffffffffffffffffff16021790555081600360006101000a81548173ffffffffffffffffffffffffffffffffffffffff021916908373ffffffffffffffffffffffffffffffffffffffff1602179055506000809054906101000a900473ffffffffffffffffffffffffffffffffffffffff1673ffffffffffffffffffffffffffffffffffffffff1663ad5c46486040518163ffffffff1660e01b815260040160206040518083038186803b15801561025657600080fd5b505afa15801561026a573d6000803e3d6000fd5b505050506040513d602081101561028057600080fd5b8101908080519060200190929190505050600460006101000a81548173ffffffffffffffffffffffffffffffffffffffff021916908373ffffffffffffffffffffffffffffffffffffffff160217905550600460009054906101000a900473ffffffffffffffffffffffffffffffffffffffff16600560006101000a81548173ffffffffffffffffffffffffffffffffffffffff021916908373ffffffffffffffffffffffffffffffffffffffff16021790555080600660006101000a81548173ffffffffffffffffffffffffffffffffffffffff021916908373ffffffffffffffffffffffffffffffffffffffff16021790555080600760006101000a81548173ffffffffffffffffffffffffffffffffffffffff021916908373ffffffffffffffffffffffffffffffffffffffff160217905550505050610410806103c86000396000f3fe608060405234801561001057600080fd5b50600436106100575760003560e01c806359d0f7131461005c5780637c587b22146100a65780637ea382c1146100b0578063c4a85993146100ba578063e8078d94146100c4575b600080fd5b6100646100ce565b604051808273ffffffffffffffffffffffffffffffffffffffff1673ffffffffffffffffffffffffffffffffffffffff16815260200191505060405180910390f35b6100ae6100f4565b005b6100b86100f6565b005b6100c26100f8565b005b6100cc6103d8565b005b600160009054906101000a900473ffffffffffffffffffffffffffffffffffffffff1681565b565b565b6060600260405190808252806020026020018201604052801561012a5781602001602082028038833980820191505090505b509050600460009054906101000a900473ffffffffffffffffffffffffffffffffffffffff168160008151811061015d57fe5b602002602001019073ffffffffffffffffffffffffffffffffffffffff16908173ffffffffffffffffffffffffffffffffffffffff1681525050600660009054906101000a900473ffffffffffffffffffffffffffffffffffffffff16816001815181106101c757fe5b602002602001019073ffffffffffffffffffffffffffffffffffffffff16908173ffffffffffffffffffffffffffffffffffffffff16815250506000809054906101000a900473ffffffffffffffffffffffffffffffffffffffff1673ffffffffffffffffffffffffffffffffffffffff16637ff36ab54760008430600f42016040518663ffffffff1660e01b815260040180858152602001806020018473ffffffffffffffffffffffffffffffffffffffff1673ffffffffffffffffffffffffffffffffffffffff168152602001838152602001828103825285818151815260200191508051906020019060200280838360005b838110156102d75780820151818401526020810190506102bc565b50505050905001955050505050506000604051808303818588803b1580156102fe57600080fd5b505af1158015610312573d6000803e3d6000fd5b50505050506040513d6000823e3d601f19601f82011682018060405250602081101561033d57600080fd5b810190808051604051939291908464010000000082111561035d57600080fd5b8382019150602082018581111561037357600080fd5b825186602082028301116401000000008211171561039057600080fd5b8083526020830192505050908051906020019060200280838360005b838110156103c75780820151818401526020810190506103ac565b505050509050016040525050505050565b56fea26469706673582212207d9303c99c434e7e064d349d4713f37916f63dfa0147ad52df632a7aa2767a3e64736f6c63430006020033",
  "source": "pragma solidity ^0.6.2;\n\nimport \"./IExerciceSolution.sol\";\n\nimport '@uniswap/v2-periphery/contracts/interfaces/IUniswapV2Router02.sol';\nimport \"@openzeppelin/contracts/token/ERC20/ERC20.sol\";\nimport \"./IRichERC20.sol\";\nimport \"./DummyToken.sol\";\nimport \"./utils/IUniswapV2Factory.sol\";\n\ncontract ExerciceSolution is IExerciceSolution {\n    IUniswapV2Router02 uniswapRouter;\n    IUniswapV2Factory public uniswapV2Factory;\n\n    address dummyTokenAddress;\n    DummyToken private dummyToken;\n\n    address wethAddress;\n    IERC20 private weth;\n\n    address tokenToSwapAddress;\n    IRichERC20 private tokenToSwap;\n\n\n    constructor(address _uniswapRouterAddress,address _dummyToken,address _ttsAddress) public payable{\n        uniswapRouter=IUniswapV2Router02(_uniswapRouterAddress);\n        uniswapV2Factory=IUniswapV2Factory(uniswapRouter.factory());\n        dummyTokenAddress=_dummyToken;\n        dummyToken=DummyToken(_dummyToken);\n        wethAddress=uniswapRouter.WETH();\n        weth=ERC20(wethAddress);\n        tokenToSwapAddress=_ttsAddress;\n        tokenToSwap=IRichERC20(_ttsAddress);\n\n    }\n\n    function addLiquidity() external override {}\n\n    function withdrawLiquidity() external override {}\n\n    function swapYourTokenForDummyToken() external override {}\n\n    function swapYourTokenForEth() external override {\n        address [] memory path  = new address[](2);\n        path[0] = wethAddress;\n        path[1]= tokenToSwapAddress;\n        uniswapRouter.swapExactETHForTokens{ value: address(this).balance }(0, path, address(this), block.timestamp + 15);\n    }\n\n    //receive() external payable {}\n}\n",
  "sourcePath": "/Users/antoinerevel/Documents/Cours/ESILV A4/Decentralized Finance/TD02 AMM-101/amm-101/contracts/ExerciceSolution.sol",
  "compiler": {
    "name": "solc",
    "version": "0.6.2+commit.bacdbe57.Emscripten.clang"
  },
  "schemaVersion": "3.4.10",
  "updatedAt": "2023-02-21T00:05:28.739Z",
  "networkType": "ethereum",
  "devdoc": {
    "methods": {}
  },
  "userdoc": {
    "methods": {}
  }
}