{
  "contractName": "ExerciceSolution",
  "abi": [
    {
      "inputs": [],
      "stateMutability": "nonpayable",
      "type": "constructor"
    },
    {
      "inputs": [],
      "name": "addLiquidity",
      "outputs": [],
      "stateMutability": "nonpayable",
      "type": "function"
    },
    {
      "inputs": [],
      "name": "withdrawLiquidity",
      "outputs": [],
      "stateMutability": "nonpayable",
      "type": "function"
    },
    {
      "inputs": [],
      "name": "swapYourTokenForDummyToken",
      "outputs": [],
      "stateMutability": "nonpayable",
      "type": "function"
    },
    {
      "inputs": [],
      "name": "swapYourTokenForEth",
      "outputs": [],
      "stateMutability": "nonpayable",
      "type": "function"
    }
  ],
  "bytecode": "0x608060405234801561001057600080fd5b5060a98061001f6000396000f3fe6080604052348015600f57600080fd5b506004361060465760003560e01c80637c587b2214604b5780637ea382c1146053578063c4a8599314605b578063e8078d94146063575b600080fd5b6051606b565b005b6059606d565b005b6061606f565b005b60696071565b005b565b565b565b56fea2646970667358221220fdd529c28ed642cfe8f7700416dae3f93d1f034b8cb6ba8aa75cf367666215ac64736f6c63430006020033",
  "source": "pragma solidity ^0.6.2;\n\nimport \"./IExerciceSolution.sol\";\n\ncontract ExerciceSolution is IExerciceSolution {\n    constructor() public {}\n    function addLiquidity() external override {}\n\n    function withdrawLiquidity() external override {}\n\n    function swapYourTokenForDummyToken() external override {}\n\n    function swapYourTokenForEth() external override {}\n\n}\n",
  "sourcePath": "/Users/antoinerevel/Documents/Cours/ESILV A4/Decentralized Finance/TD02 AMM-101/amm-101/contracts/ExerciceSolution.sol",
  "compiler": {
    "name": "solc",
    "version": "0.6.2+commit.bacdbe57.Emscripten.clang"
  },
  "schemaVersion": "3.4.10",
  "updatedAt": "2023-02-20T00:52:15.271Z",
  "networkType": "ethereum",
  "devdoc": {
    "methods": {}
  },
  "userdoc": {
    "methods": {}
  }
}